{
  "contractName": "DB",
  "abi": [
    {
      "inputs": [],
      "payable": false,
      "stateMutability": "nonpayable",
      "type": "constructor"
    },
    {
      "constant": false,
      "inputs": [
        {
          "internalType": "string",
          "name": "_documentId",
          "type": "string"
        },
        {
          "internalType": "uint256",
          "name": "_data",
          "type": "uint256"
        },
        {
          "internalType": "bool",
          "name": "_warning",
          "type": "bool"
        }
      ],
      "name": "store",
      "outputs": [],
      "payable": false,
      "stateMutability": "nonpayable",
      "type": "function"
    },
    {
      "constant": false,
      "inputs": [
        {
          "internalType": "string",
          "name": "_documentId",
          "type": "string"
        },
        {
          "internalType": "address",
          "name": "_owner",
          "type": "address"
        }
      ],
      "name": "initDocument",
      "outputs": [],
      "payable": false,
      "stateMutability": "nonpayable",
      "type": "function"
    },
    {
      "constant": true,
      "inputs": [
        {
          "internalType": "string",
          "name": "_documentId",
          "type": "string"
        }
      ],
      "name": "getDocumentOwner",
      "outputs": [
        {
          "internalType": "address",
          "name": "",
          "type": "address"
        }
      ],
      "payable": false,
      "stateMutability": "view",
      "type": "function"
    },
    {
      "constant": true,
      "inputs": [
        {
          "internalType": "string",
          "name": "_documentId",
          "type": "string"
        },
        {
          "internalType": "bool",
          "name": "_unique",
          "type": "bool"
        }
      ],
      "name": "exist",
      "outputs": [
        {
          "internalType": "bool",
          "name": "",
          "type": "bool"
        }
      ],
      "payable": false,
      "stateMutability": "view",
      "type": "function"
    },
    {
      "constant": true,
      "inputs": [
        {
          "internalType": "uint256",
          "name": "_temperatureLimit",
          "type": "uint256"
        }
      ],
      "name": "isTemperatureValid",
      "outputs": [
        {
          "internalType": "bool",
          "name": "",
          "type": "bool"
        }
      ],
      "payable": false,
      "stateMutability": "view",
      "type": "function"
    },
    {
      "constant": true,
      "inputs": [
        {
          "internalType": "string",
          "name": "_documentId",
          "type": "string"
        },
        {
          "internalType": "uint256",
          "name": "_version",
          "type": "uint256"
        }
      ],
      "name": "getDocument",
      "outputs": [
        {
          "internalType": "bool",
          "name": "",
          "type": "bool"
        }
      ],
      "payable": false,
      "stateMutability": "view",
      "type": "function"
    }
  ],
  "bytecode": "0x608060405234801561001057600080fd5b5033600360006101000a81548173ffffffffffffffffffffffffffffffffffffffff021916908373ffffffffffffffffffffffffffffffffffffffff1602179055506116e2806100616000396000f3fe608060405234801561001057600080fd5b50600436106100625760003560e01c80637b0cacc31461006757806385d352e514610138578063c75cb84e14610215578063cb356d91146102f4578063efc7f071146103ef578063f1636aa4146104ca575b600080fd5b6101366004803603606081101561007d57600080fd5b810190808035906020019064010000000081111561009a57600080fd5b8201836020820111156100ac57600080fd5b803590602001918460018302840111640100000000831117156100ce57600080fd5b91908080601f016020809104026020016040519081016040528093929190818152602001838380828437600081840152601f19601f82011690508083019250505050505050919291929080359060200190929190803515159060200190929190505050610510565b005b6101fb6004803603604081101561014e57600080fd5b810190808035906020019064010000000081111561016b57600080fd5b82018360208201111561017d57600080fd5b8035906020019184600183028401116401000000008311171561019f57600080fd5b91908080601f016020809104026020016040519081016040528093929190818152602001838380828437600081840152601f19601f8201169050808301925050505050505091929192908035906020019092919050505061092e565b604051808215151515815260200191505060405180910390f35b6102da6004803603604081101561022b57600080fd5b810190808035906020019064010000000081111561024857600080fd5b82018360208201111561025a57600080fd5b8035906020019184600183028401116401000000008311171561027c57600080fd5b91908080601f016020809104026020016040519081016040528093929190818152602001838380828437600081840152601f19601f820116905080830192505050505050509192919290803515159060200190929190505050610a91565b604051808215151515815260200191505060405180910390f35b6103ad6004803603602081101561030a57600080fd5b810190808035906020019064010000000081111561032757600080fd5b82018360208201111561033957600080fd5b8035906020019184600183028401116401000000008311171561035b57600080fd5b91908080601f016020809104026020016040519081016040528093929190818152602001838380828437600081840152601f19601f820116905080830192505050505050509192919290505050610ca3565b604051808273ffffffffffffffffffffffffffffffffffffffff1673ffffffffffffffffffffffffffffffffffffffff16815260200191505060405180910390f35b6104c86004803603604081101561040557600080fd5b810190808035906020019064010000000081111561042257600080fd5b82018360208201111561043457600080fd5b8035906020019184600183028401116401000000008311171561045657600080fd5b91908080601f016020809104026020016040519081016040528093929190818152602001838380828437600081840152601f19601f820116905080830192505050505050509192919290803573ffffffffffffffffffffffffffffffffffffffff169060200190929190505050610dfc565b005b6104f6600480360360208110156104e057600080fd5b810190808035906020019092919050505061110c565b604051808215151515815260200191505060405180910390f35b600360009054906101000a900473ffffffffffffffffffffffffffffffffffffffff1673ffffffffffffffffffffffffffffffffffffffff163373ffffffffffffffffffffffffffffffffffffffff16146105d3576040517f08c379a000000000000000000000000000000000000000000000000000000000815260040180806020018281038252601a8152602001807f4f6e6c792064624f776e65722063616e2063616c6c207468697300000000000081525060200191505060405180910390fd5b816000846040518082805190602001908083835b6020831061060a57805182526020820191506020810190506020830392506105e7565b6001836020036101000a0380198251168184511680821785525050505050509050019150509081526020016040518091039020600301600080866040518082805190602001908083835b602083106106775780518252602082019150602081019050602083039250610654565b6001836020036101000a038019825116818451168082178552505050505050905001915050908152602001604051809103902060020154815260200190815260200160002081905550806000846040518082805190602001908083835b602083106106f757805182526020820191506020810190506020830392506106d4565b6001836020036101000a0380198251168184511680821785525050505050509050019150509081526020016040518091039020600401600080866040518082805190602001908083835b602083106107645780518252602082019150602081019050602083039250610741565b6001836020036101000a038019825116818451168082178552505050505050905001915050908152602001604051809103902060020154815260200190815260200160002060006101000a81548160ff021916908315150217905550426000846040518082805190602001908083835b602083106107f757805182526020820191506020810190506020830392506107d4565b6001836020036101000a0380198251168184511680821785525050505050509050019150509081526020016040518091039020600501600080866040518082805190602001908083835b602083106108645780518252602082019150602081019050602083039250610841565b6001836020036101000a0380198251168184511680821785525050505050509050019150509081526020016040518091039020600201548152602001908152602001600020819055506000836040518082805190602001908083835b602083106108e357805182526020820191506020810190506020830392506108c0565b6001836020036101000a038019825116818451168082178552505050505050905001915050908152602001604051809103902060020160008154809291906001019190505550505050565b6000600360009054906101000a900473ffffffffffffffffffffffffffffffffffffffff1673ffffffffffffffffffffffffffffffffffffffff163373ffffffffffffffffffffffffffffffffffffffff16146109f3576040517f08c379a000000000000000000000000000000000000000000000000000000000815260040180806020018281038252601a8152602001807f4f6e6c792064624f776e65722063616e2063616c6c207468697300000000000081525060200191505060405180910390fd5b600080846040518082805190602001908083835b60208310610a2a5780518252602082019150602081019050602083039250610a07565b6001836020036101000a03801982511681845116808217855250505050505090500191505090815260200160405180910390209050600081600401600085815260200190815260200160002060009054906101000a900460ff169050809250505092915050565b6000600360009054906101000a900473ffffffffffffffffffffffffffffffffffffffff1673ffffffffffffffffffffffffffffffffffffffff163373ffffffffffffffffffffffffffffffffffffffff1614610b56576040517f08c379a000000000000000000000000000000000000000000000000000000000815260040180806020018281038252601a8152602001807f4f6e6c792064624f776e65722063616e2063616c6c207468697300000000000081525060200191505060405180910390fd5b600080600090505b6000856040518082805190602001908083835b60208310610b945780518252602082019150602081019050602083039250610b71565b6001836020036101000a038019825116818451168082178552505050505050905001915050908152602001604051809103902060020154811015610c77576000856040518082805190602001908083835b60208310610c085780518252602082019150602081019050602083039250610be5565b6001836020036101000a0380198251168184511680821785525050505050509050019150509081526020016040518091039020600401600082815260200190815260200160002060009054906101000a900460ff16610c6a5781806001019250505b8080600101915050610b5e565b50828015610c855750600181115b15610c94576000915050610c9d565b60018110159150505b92915050565b6000600360009054906101000a900473ffffffffffffffffffffffffffffffffffffffff1673ffffffffffffffffffffffffffffffffffffffff163373ffffffffffffffffffffffffffffffffffffffff1614610d68576040517f08c379a000000000000000000000000000000000000000000000000000000000815260040180806020018281038252601a8152602001807f4f6e6c792064624f776e65722063616e2063616c6c207468697300000000000081525060200191505060405180910390fd5b6000826040518082805190602001908083835b60208310610d9e5780518252602082019150602081019050602083039250610d7b565b6001836020036101000a038019825116818451168082178552505050505050905001915050908152602001604051809103902060010160009054906101000a900473ffffffffffffffffffffffffffffffffffffffff169050919050565b600360009054906101000a900473ffffffffffffffffffffffffffffffffffffffff1673ffffffffffffffffffffffffffffffffffffffff163373ffffffffffffffffffffffffffffffffffffffff1614610ebf576040517f08c379a000000000000000000000000000000000000000000000000000000000815260040180806020018281038252601a8152602001807f4f6e6c792064624f776e65722063616e2063616c6c207468697300000000000081525060200191505060405180910390fd5b60405180606001604052808381526020018273ffffffffffffffffffffffffffffffffffffffff16815260200160008152506000836040518082805190602001908083835b60208310610f275780518252602082019150602081019050602083039250610f04565b6001836020036101000a03801982511681845116808217855250505050505090500191505090815260200160405180910390206000820151816000019080519060200190610f76929190611588565b5060208201518160010160006101000a81548173ffffffffffffffffffffffffffffffffffffffff021916908373ffffffffffffffffffffffffffffffffffffffff1602179055506040820151816002015590505060016000836040518082805190602001908083835b602083106110035780518252602082019150602081019050602083039250610fe0565b6001836020036101000a0380198251168184511680821785525050505050509050019150509081526020016040518091039020600401600080856040518082805190602001908083835b60208310611070578051825260208201915060208101905060208303925061104d565b6001836020036101000a038019825116818451168082178552505050505050905001915050908152602001604051809103902060020154815260200190815260200160002060006101000a81548160ff0219169083151502179055508160016000600254815260200190815260200160002090805190602001906110f5929190611608565b506002600081548092919060010191905055505050565b6000600360009054906101000a900473ffffffffffffffffffffffffffffffffffffffff1673ffffffffffffffffffffffffffffffffffffffff163373ffffffffffffffffffffffffffffffffffffffff16146111d1576040517f08c379a000000000000000000000000000000000000000000000000000000000815260040180806020018281038252601a8152602001807f4f6e6c792064624f776e65722063616e2063616c6c207468697300000000000081525060200191505060405180910390fd5b60606112116040518060400160405280600b81526020017f74656d7065726174757265000000000000000000000000000000000000000000815250611261565b905060008090505b8151811015611255578382828151811061122f57fe5b602002602001015111156112485760009250505061125c565b8080600101915050611219565b5060019150505b919050565b6060600360009054906101000a900473ffffffffffffffffffffffffffffffffffffffff1673ffffffffffffffffffffffffffffffffffffffff163373ffffffffffffffffffffffffffffffffffffffff1614611326576040517f08c379a000000000000000000000000000000000000000000000000000000000815260040180806020018281038252601a8152602001807f4f6e6c792064624f776e65722063616e2063616c6c207468697300000000000081525060200191505060405180910390fd5b60606000836040518082805190602001908083835b6020831061135e578051825260208201915060208101905060208303925061133b565b6001836020036101000a0380198251168184511680821785525050505050509050019150509081526020016040518091039020600201546040519080825280602002602001820160405280156113c35781602001602082028038833980820191505090505b509050600080600090505b6000856040518082805190602001908083835b6020831061140457805182526020820191506020810190506020830392506113e1565b6001836020036101000a03801982511681845116808217855250505050505090500191505090815260200160405180910390206002015481101561157d576000856040518082805190602001908083835b602083106114785780518252602082019150602081019050602083039250611455565b6001836020036101000a0380198251168184511680821785525050505050509050019150509081526020016040518091039020600401600082815260200190815260200160002060009054906101000a900460ff16611570576000856040518082805190602001908083835b6020831061150757805182526020820191506020810190506020830392506114e4565b6001836020036101000a038019825116818451168082178552505050505050905001915050908152602001604051809103902060030160008281526020019081526020016000205483838151811061155b57fe5b60200260200101818152505081806001019250505b80806001019150506113ce565b508192505050919050565b828054600181600116156101000203166002900490600052602060002090601f016020900481019282601f106115c957805160ff19168380011785556115f7565b828001600101855582156115f7579182015b828111156115f65782518255916020019190600101906115db565b5b5090506116049190611688565b5090565b828054600181600116156101000203166002900490600052602060002090601f016020900481019282601f1061164957805160ff1916838001178555611677565b82800160010185558215611677579182015b8281111561167657825182559160200191906001019061165b565b5b5090506116849190611688565b5090565b6116aa91905b808211156116a657600081600090555060010161168e565b5090565b9056fea265627a7a72315820d7bd08bee594a2b2080dddf979ba93b20942d725815fec798bb6be56846359d364736f6c63430005100032",
  "source": "pragma solidity ^0.5.0;\n\ncontract DB {\n\n    struct Document {\n        string id;\n        address owner;\n        uint versionCounter;\n        mapping(uint => uint) data;\n        mapping(uint => bool) warnings;\n        mapping(uint => uint) timestamps;\n    }\n    mapping(string => Document) documents;\n\n    mapping(uint => string) documentNames;\n    uint private documentNamesCounter;\n\n    address private dbOwner;\n\n    constructor() public {\n        dbOwner = msg.sender;\n    }\n\n\n    modifier onlyDbOwner() {\n        require(msg.sender==dbOwner, \"Only dbOwner can call this\");\n        _;\n    }\n\n    // store a document identified by `_documentId`\n    function store(string memory _documentId, uint _data, bool _warning) public onlyDbOwner{\n\n        documents[_documentId].data[documents[_documentId].versionCounter] = _data;\n        documents[_documentId].warnings[documents[_documentId].versionCounter] = _warning;\n        documents[_documentId].timestamps[documents[_documentId].versionCounter] = now;\n        documents[_documentId].versionCounter++;\n    }\n\n\n    // create document entry and set it's ownership\n    function initDocument(string memory _documentId, address _owner) public onlyDbOwner{\n        documents[_documentId] = Document(_documentId,_owner, 0);\n        documents[_documentId].warnings[documents[_documentId].versionCounter] = true;\n\n        documentNames[documentNamesCounter] = _documentId;\n        documentNamesCounter++;\n    }\n\n    function getDocumentOwner(string memory _documentId) public view onlyDbOwner returns(address) {\n        return documents[_documentId].owner;\n    }\n\n    // returns an array of the document data with warning flag set to false\n    // `_documentid` to retrieve\n    function getValidData(string memory _documentId) private view onlyDbOwner returns(uint[] memory){\n        uint[] memory validDocuments = new uint[](documents[_documentId].versionCounter);\n        uint index;\n        // for each document version\n        for(uint i = 0; i < documents[_documentId].versionCounter; i++){\n            // add the document if it is valid\n            if(!documents[_documentId].warnings[i]){\n                validDocuments[index] = documents[_documentId].data[i];\n                index++;\n            }\n        }\n        return validDocuments;\n    }\n\n    function exist(string memory _documentId, bool _unique) public view onlyDbOwner returns(bool){\n        uint counter;\n\n        for(uint i = 0; i < documents[_documentId].versionCounter; i++){\n            if(!documents[_documentId].warnings[i]){\n                counter++;\n            }\n        }\n        if(_unique && counter > 1){\n            return false;\n        }\n        else {\n            return counter >= 1;\n        }\n    }\n\n    function isTemperatureValid(uint _temperatureLimit) public view onlyDbOwner returns(bool) {\n        uint[] memory temperatureData = getValidData(\"temperature\");\n        for(uint i = 0; i < temperatureData.length; i++){\n            if(temperatureData[i] > _temperatureLimit){\n                return false;\n            }\n        }\n        return true;\n    }\n\n    function getDocument(string memory _documentId, uint _version) public onlyDbOwner view returns(bool){\n        Document storage doc = documents[_documentId];\n        //uint d = doc.data[_version];\n        bool w = doc.warnings[_version];\n        //uint t = doc.timestamps[_version];\n\n        return w;\n    }\n}",
  "sourcePath": "/home/brt/development/commitment-solidity/contracts/db/DB.sol",
  "compiler": {
    "name": "solc",
    "version": "0.5.16+commit.9c3226ce.Emscripten.clang"
  },
  "schemaVersion": "3.1.0",
  "updatedAt": "2020-05-22T18:48:52.392Z",
  "devdoc": {
    "methods": {}
  },
  "userdoc": {
    "methods": {}
  }
}