{
  "contractName": "TemperatureCommitment",
  "abi": [
    {
      "inputs": [
        {
          "internalType": "uint256",
          "name": "_temperatureLimit",
          "type": "uint256"
        }
      ],
      "payable": false,
      "stateMutability": "nonpayable",
      "type": "constructor"
    },
    {
      "constant": true,
      "inputs": [],
      "name": "creditor",
      "outputs": [
        {
          "internalType": "address",
          "name": "",
          "type": "address"
        }
      ],
      "payable": false,
      "stateMutability": "view",
      "type": "function"
    },
    {
      "constant": true,
      "inputs": [],
      "name": "creditorApproved",
      "outputs": [
        {
          "internalType": "bool",
          "name": "",
          "type": "bool"
        }
      ],
      "payable": false,
      "stateMutability": "view",
      "type": "function"
    },
    {
      "constant": true,
      "inputs": [],
      "name": "debtor",
      "outputs": [
        {
          "internalType": "address",
          "name": "",
          "type": "address"
        }
      ],
      "payable": false,
      "stateMutability": "view",
      "type": "function"
    },
    {
      "constant": true,
      "inputs": [],
      "name": "debtorApproved",
      "outputs": [
        {
          "internalType": "bool",
          "name": "",
          "type": "bool"
        }
      ],
      "payable": false,
      "stateMutability": "view",
      "type": "function"
    },
    {
      "constant": true,
      "inputs": [],
      "name": "getRefC",
      "outputs": [
        {
          "internalType": "enum Commitment.RefCs",
          "name": "",
          "type": "uint8"
        }
      ],
      "payable": false,
      "stateMutability": "view",
      "type": "function"
    },
    {
      "constant": true,
      "inputs": [],
      "name": "getState",
      "outputs": [
        {
          "internalType": "enum Commitment.States",
          "name": "",
          "type": "uint8"
        }
      ],
      "payable": false,
      "stateMutability": "view",
      "type": "function"
    },
    {
      "constant": true,
      "inputs": [],
      "name": "getStateToString",
      "outputs": [
        {
          "internalType": "string",
          "name": "",
          "type": "string"
        }
      ],
      "payable": false,
      "stateMutability": "view",
      "type": "function"
    },
    {
      "constant": true,
      "inputs": [],
      "name": "getWarning",
      "outputs": [
        {
          "internalType": "bool",
          "name": "",
          "type": "bool"
        }
      ],
      "payable": false,
      "stateMutability": "view",
      "type": "function"
    },
    {
      "constant": false,
      "inputs": [
        {
          "internalType": "string",
          "name": "_documentId",
          "type": "string"
        },
        {
          "internalType": "address",
          "name": "_documentOwner",
          "type": "address"
        },
        {
          "internalType": "string",
          "name": "_documentCategory",
          "type": "string"
        }
      ],
      "name": "initDocument",
      "outputs": [],
      "payable": false,
      "stateMutability": "nonpayable",
      "type": "function"
    },
    {
      "constant": true,
      "inputs": [],
      "name": "isStarted",
      "outputs": [
        {
          "internalType": "bool",
          "name": "",
          "type": "bool"
        }
      ],
      "payable": false,
      "stateMutability": "view",
      "type": "function"
    },
    {
      "constant": true,
      "inputs": [],
      "name": "isTerminated",
      "outputs": [
        {
          "internalType": "bool",
          "name": "",
          "type": "bool"
        }
      ],
      "payable": false,
      "stateMutability": "view",
      "type": "function"
    },
    {
      "constant": false,
      "inputs": [],
      "name": "onTick",
      "outputs": [],
      "payable": false,
      "stateMutability": "nonpayable",
      "type": "function"
    },
    {
      "constant": true,
      "inputs": [],
      "name": "owner",
      "outputs": [
        {
          "internalType": "address",
          "name": "",
          "type": "address"
        }
      ],
      "payable": false,
      "stateMutability": "view",
      "type": "function"
    },
    {
      "constant": false,
      "inputs": [
        {
          "internalType": "string",
          "name": "_documentId",
          "type": "string"
        },
        {
          "internalType": "uint256",
          "name": "_documentData",
          "type": "uint256"
        }
      ],
      "name": "postDocument",
      "outputs": [],
      "payable": false,
      "stateMutability": "nonpayable",
      "type": "function"
    },
    {
      "constant": false,
      "inputs": [
        {
          "internalType": "address",
          "name": "_creditor",
          "type": "address"
        },
        {
          "internalType": "address",
          "name": "_debtor",
          "type": "address"
        }
      ],
      "name": "setActors",
      "outputs": [],
      "payable": false,
      "stateMutability": "nonpayable",
      "type": "function"
    },
    {
      "constant": false,
      "inputs": [],
      "name": "signCommitment",
      "outputs": [],
      "payable": false,
      "stateMutability": "nonpayable",
      "type": "function"
    }
  ],
  "bytecode": "0x608060405260008060016101000a81548160ff021916908360078111156200002357fe5b02179055506000600960166101000a81548160ff021916908360018111156200004857fe5b02179055503480156200005a57600080fd5b50604051620043af380380620043af833981810160405260208110156200008057600080fd5b81019080805190602001909291905050506000600160008060008060018686868686868660008060016101000a81548160ff02191690836007811115620000c357fe5b0217905550866000806101000a81548160ff02191690836001811115620000e657fe5b021790555085600060036101000a81548160ff021916908360018111156200010a57fe5b02179055508460018190555083600281905550826003819055508160048190555080600560006101000a81548160ff021916908360018111156200014a57fe5b0217905550505050505050506000600960166101000a81548160ff021916908360018111156200017657fe5b021790555033600a60006101000a81548173ffffffffffffffffffffffffffffffffffffffff021916908373ffffffffffffffffffffffffffffffffffffffff1602179055505050505050505080600e81905550604051620001d8906200023d565b604051809103906000f080158015620001f5573d6000803e3d6000fd5b50600f60006101000a81548173ffffffffffffffffffffffffffffffffffffffff021916908373ffffffffffffffffffffffffffffffffffffffff160217905550506200024b565b6117438062002c6c83390190565b612a11806200025b6000396000f3fe608060405234801561001057600080fd5b50600436106101005760003560e01c806394657ca011610097578063d1cc997611610066578063d1cc997614610567578063da11d8fd14610589578063e2273983146105ab578063e36db785146105cd57610100565b806394657ca0146103ea5780639c2b5e03146103f45780639cb64a2d146104b95780639ec77f841461050357610100565b806359d6fa6a116100d357806359d6fa6a146102cf57806383eb7596146103525780638af9812a146103745780638da5cb5b146103a057610100565b80631865c57d146101055780633eccea221461013157806348b653f21461013b578063544736e6146102ad575b600080fd5b61010d610617565b6040518082600781111561011d57fe5b60ff16815260200191505060405180910390f35b61013961062d565b005b6102ab6004803603606081101561015157600080fd5b810190808035906020019064010000000081111561016e57600080fd5b82018360208201111561018057600080fd5b803590602001918460018302840111640100000000831117156101a257600080fd5b91908080601f016020809104026020016040519081016040528093929190818152602001838380828437600081840152601f19601f820116905080830192505050505050509192919290803573ffffffffffffffffffffffffffffffffffffffff1690602001909291908035906020019064010000000081111561022557600080fd5b82018360208201111561023757600080fd5b8035906020019184600183028401116401000000008311171561025957600080fd5b91908080601f016020809104026020016040519081016040528093929190818152602001838380828437600081840152601f19601f8201169050808301925050505050505091929192905050506108e4565b005b6102b5610d37565b604051808215151515815260200191505060405180910390f35b6102d7610d4e565b6040518080602001828103825283818151815260200191508051906020019080838360005b838110156103175780820151818401526020810190506102fc565b50505050905090810190601f1680156103445780820380516001836020036101000a031916815260200191505b509250505060405180910390f35b61035a611078565b604051808215151515815260200191505060405180910390f35b61037c61108b565b6040518082600181111561038c57fe5b60ff16815260200191505060405180910390f35b6103a86110a2565b604051808273ffffffffffffffffffffffffffffffffffffffff1673ffffffffffffffffffffffffffffffffffffffff16815260200191505060405180910390f35b6103f26110c8565b005b6104b76004803603604081101561040a57600080fd5b810190808035906020019064010000000081111561042757600080fd5b82018360208201111561043957600080fd5b8035906020019184600183028401116401000000008311171561045b57600080fd5b91908080601f016020809104026020016040519081016040528093929190818152602001838380828437600081840152601f19601f820116905080830192505050505050509192919290803590602001909291905050506114f8565b005b6104c1611976565b604051808273ffffffffffffffffffffffffffffffffffffffff1673ffffffffffffffffffffffffffffffffffffffff16815260200191505060405180910390f35b6105656004803603604081101561051957600080fd5b81019080803573ffffffffffffffffffffffffffffffffffffffff169060200190929190803573ffffffffffffffffffffffffffffffffffffffff16906020019092919050505061199c565b005b61056f611ca1565b604051808215151515815260200191505060405180910390f35b610591611cb8565b604051808215151515815260200191505060405180910390f35b6105b3611ccb565b604051808215151515815260200191505060405180910390f35b6105d5611cfa565b604051808273ffffffffffffffffffffffffffffffffffffffff1673ffffffffffffffffffffffffffffffffffffffff16815260200191505060405180910390f35b60008060019054906101000a900460ff16905090565b33600073ffffffffffffffffffffffffffffffffffffffff168173ffffffffffffffffffffffffffffffffffffffff16141580156107105750600960009054906101000a900473ffffffffffffffffffffffffffffffffffffffff1673ffffffffffffffffffffffffffffffffffffffff168173ffffffffffffffffffffffffffffffffffffffff16148061070f5750600860009054906101000a900473ffffffffffffffffffffffffffffffffffffffff1673ffffffffffffffffffffffffffffffffffffffff168173ffffffffffffffffffffffffffffffffffffffff16145b5b610782576040517f08c379a00000000000000000000000000000000000000000000000000000000081526004018080602001828103825260158152602001807f7061727469636970616e74206e6f742076616c6964000000000000000000000081525060200191505060405180910390fd5b6000600781111561078f57fe5b610797610617565b60078111156107a257fe5b146107f8576040517f08c379a000000000000000000000000000000000000000000000000000000000815260040180806020018281038252602c81526020018061298b602c913960400191505060405180910390fd5b600960009054906101000a900473ffffffffffffffffffffffffffffffffffffffff1673ffffffffffffffffffffffffffffffffffffffff163373ffffffffffffffffffffffffffffffffffffffff16141561086e576001600960146101000a81548160ff0219169083151502179055506108e1565b600860009054906101000a900473ffffffffffffffffffffffffffffffffffffffff1673ffffffffffffffffffffffffffffffffffffffff163373ffffffffffffffffffffffffffffffffffffffff1614156108e0576001600960156101000a81548160ff0219169083151502179055505b5b50565b600a60009054906101000a900473ffffffffffffffffffffffffffffffffffffffff1673ffffffffffffffffffffffffffffffffffffffff163373ffffffffffffffffffffffffffffffffffffffff16146109a7576040517f08c379a00000000000000000000000000000000000000000000000000000000081526004018080602001828103825260148152602001807f796f752063616e6e6f742063616c6c207468697300000000000000000000000081525060200191505060405180910390fd5b600060078111156109b457fe5b6109bc610617565b60078111156109c757fe5b14610a1d576040517f08c379a000000000000000000000000000000000000000000000000000000000815260040180806020018281038252602c81526020018061298b602c913960400191505060405180910390fd5b81600073ffffffffffffffffffffffffffffffffffffffff168173ffffffffffffffffffffffffffffffffffffffff1614158015610b005750600960009054906101000a900473ffffffffffffffffffffffffffffffffffffffff1673ffffffffffffffffffffffffffffffffffffffff168173ffffffffffffffffffffffffffffffffffffffff161480610aff5750600860009054906101000a900473ffffffffffffffffffffffffffffffffffffffff1673ffffffffffffffffffffffffffffffffffffffff168173ffffffffffffffffffffffffffffffffffffffff16145b5b610b72576040517f08c379a00000000000000000000000000000000000000000000000000000000081526004018080602001828103825260158152602001807f7061727469636970616e74206e6f742076616c6964000000000000000000000081525060200191505060405180910390fd5b610b7b82611d20565b610bed576040517f08c379a000000000000000000000000000000000000000000000000000000000815260040180806020018281038252601b8152602001807f446f63756d656e742063617465676f7279206e6f742076616c6964000000000081525060200191505060405180910390fd5b82600b856040518082805190602001908083835b60208310610c245780518252602082019150602081019050602083039250610c01565b6001836020036101000a038019825116818451168082178552505050505050905001915050908152602001604051809103902060006101000a81548173ffffffffffffffffffffffffffffffffffffffff021916908373ffffffffffffffffffffffffffffffffffffffff160217905550610c9e82611e17565b600c856040518082805190602001908083835b60208310610cd45780518252602082019150602081019050602083039250610cb1565b6001836020036101000a038019825116818451168082178552505050505050905001915050908152602001604051809103902060006101000a81548160ff02191690836002811115610d2257fe5b0217905550610d318484611f0a565b50505050565b6000600d60009054906101000a900460ff16905090565b606060006007811115610d5d57fe5b600060019054906101000a900460ff166007811115610d7857fe5b1415610dbb576040518060400160405280600481526020017f6e756c6c000000000000000000000000000000000000000000000000000000008152509050611075565b60056007811115610dc857fe5b600060019054906101000a900460ff166007811115610de357fe5b1415610e26576040518060400160405280600881526020017f64657461636865640000000000000000000000000000000000000000000000008152509050611075565b60046007811115610e3357fe5b600060019054906101000a900460ff166007811115610e4e57fe5b1415610e91576040518060400160405280600b81526020017f636f6e646974696f6e616c0000000000000000000000000000000000000000008152509050611075565b600780811115610e9d57fe5b600060019054906101000a900460ff166007811115610eb857fe5b1415610efb576040518060400160405280600881526020017f76696f6c617465640000000000000000000000000000000000000000000000008152509050611075565b60066007811115610f0857fe5b600060019054906101000a900460ff166007811115610f2357fe5b1415610f66576040518060400160405280600981526020017f73617469736669656400000000000000000000000000000000000000000000008152509050611075565b60026007811115610f7357fe5b600060019054906101000a900460ff166007811115610f8e57fe5b1415610fd1576040518060400160405280600a81526020017f7465726d696e61746564000000000000000000000000000000000000000000008152509050611075565b60016007811115610fde57fe5b600060019054906101000a900460ff166007811115610ff957fe5b141561103c576040518060400160405280600781526020017f65787069726564000000000000000000000000000000000000000000000000008152509050611075565b6040518060400160405280600781526020017f70656e64696e670000000000000000000000000000000000000000000000000081525090505b90565b600960159054906101000a900460ff1681565b6000600560009054906101000a900460ff16905090565b600a60009054906101000a900473ffffffffffffffffffffffffffffffffffffffff1681565b6110d0612034565b600460078111156110dd57fe5b600060019054906101000a900460ff1660078111156110f857fe5b14156112d1576004600060026101000a81548160ff0219169083600781111561111d57fe5b0217905550600560019054906101000a900460ff16806111625750600560029054906101000a900460ff1680156111615750600560079054906101000a900460ff16155b5b156111705761116f61232a565b5b600560039054906101000a900460ff161561118e5761118d612350565b5b600560029054906101000a900460ff1680156111b65750600560079054906101000a900460ff165b156111cb57426007819055506111ca612376565b5b6001808111156111d757fe5b600060039054906101000a900460ff1660018111156111f257fe5b14801561120a57506005809054906101000a900460ff165b80156112235750600560089054906101000a900460ff16155b8061126b57506000600181111561123657fe5b600060039054906101000a900460ff16600181111561125157fe5b14801561126a5750600560069054906101000a900460ff165b5b1561127d5761127861239c565b6112cc565b60018081111561128957fe5b600060039054906101000a900460ff1660018111156112a457fe5b1480156112bd5750600560069054906101000a900460ff165b156112cb576112ca6123c2565b5b5b6114f6565b600560078111156112de57fe5b600060019054906101000a900460ff1660078111156112f957fe5b14156114f5576005600781111561130c57fe5b600060029054906101000a900460ff16600781111561132757fe5b5050600560049054906101000a900460ff16806113e057506005809054906101000a900460ff1680156113df57506000600181111561136257fe5b600060039054906101000a900460ff16600181111561137d57fe5b1480156113975750600560089054906101000a900460ff16155b806113de57506001808111156113a957fe5b600060039054906101000a900460ff1660018111156113c457fe5b1480156113dd5750600560089054906101000a900460ff165b5b5b5b156113f2576113ed612376565b6114f4565b6001808111156113fe57fe5b600060039054906101000a900460ff16600181111561141957fe5b1480156114325750600560069054906101000a900460ff165b156114445761143f6123c2565b6114f3565b60018081111561145057fe5b600060039054906101000a900460ff16600181111561146b57fe5b14801561148357506005809054906101000a900460ff165b801561149c5750600560089054906101000a900460ff16155b806114e45750600060018111156114af57fe5b600060039054906101000a900460ff1660018111156114ca57fe5b1480156114e35750600560069054906101000a900460ff165b5b156114f2576114f161239c565b5b5b5b5b5b565b600960149054906101000a900460ff1680156115205750600960159054906101000a900460ff165b611575576040517f08c379a00000000000000000000000000000000000000000000000000000000081526004018080602001828103825260268152602001806129b76026913960400191505060405180910390fd5b600b826040518082805190602001908083835b602083106115ab5780518252602082019150602081019050602083039250611588565b6001836020036101000a038019825116818451168082178552505050505050905001915050908152602001604051809103902060009054906101000a900473ffffffffffffffffffffffffffffffffffffffff1673ffffffffffffffffffffffffffffffffffffffff163373ffffffffffffffffffffffffffffffffffffffff161461169f576040517f08c379a00000000000000000000000000000000000000000000000000000000081526004018080602001828103825260188152602001807f446f63756d656e74206f776e6572206e6f742076616c6964000000000000000081525060200191505060405180910390fd5b600d60009054906101000a900460ff161580156117485750600060028111156116c457fe5b600c836040518082805190602001908083835b602083106116fa57805182526020820191506020810190506020830392506116d7565b6001836020036101000a038019825116818451168082178552505050505050905001915050908152602001604051809103902060009054906101000a900460ff16600281111561174657fe5b145b80156117615750600d60019054906101000a900460ff16155b1561179a576001600d60006101000a81548160ff02191690831515021790555061178d828260006123e8565b6117956124f3565b61196a565b600d60009054906101000a900460ff1680156118425750600160028111156117be57fe5b600c836040518082805190602001908083835b602083106117f457805182526020820191506020810190506020830392506117d1565b6001836020036101000a038019825116818451168082178552505050505050905001915050908152602001604051809103902060009054906101000a900460ff16600281111561184057fe5b145b15611896576000600d60006101000a81548160ff0219169083151502179055506001600d60016101000a81548160ff021916908315150217905550611889828260006123e8565b611891612556565b611969565b600d60009054906101000a900460ff16801561193d57506002808111156118b957fe5b600c836040518082805190602001908083835b602083106118ef57805182526020820191506020810190506020830392506118cc565b6001836020036101000a038019825116818451168082178552505050505050905001915050908152602001604051809103902060009054906101000a900460ff16600281111561193b57fe5b145b156119535761194e828260006123e8565b611968565b61195f828260016123e8565b611967612765565b5b5b5b6119726110c8565b5050565b600860009054906101000a900473ffffffffffffffffffffffffffffffffffffffff1681565b600a60009054906101000a900473ffffffffffffffffffffffffffffffffffffffff1673ffffffffffffffffffffffffffffffffffffffff163373ffffffffffffffffffffffffffffffffffffffff1614611a5f576040517f08c379a00000000000000000000000000000000000000000000000000000000081526004018080602001828103825260148152602001807f796f752063616e6e6f742063616c6c207468697300000000000000000000000081525060200191505060405180910390fd5b60006007811115611a6c57fe5b611a74610617565b6007811115611a7f57fe5b14611ad5576040517f08c379a000000000000000000000000000000000000000000000000000000000815260040180806020018281038252602c81526020018061298b602c913960400191505060405180910390fd5b600073ffffffffffffffffffffffffffffffffffffffff168273ffffffffffffffffffffffffffffffffffffffff161415611b78576040517f08c379a00000000000000000000000000000000000000000000000000000000081526004018080602001828103825260178152602001807f4372656469746f722063616e6e6f74206265206e756c6c00000000000000000081525060200191505060405180910390fd5b600073ffffffffffffffffffffffffffffffffffffffff168173ffffffffffffffffffffffffffffffffffffffff161415611c1b576040517f08c379a00000000000000000000000000000000000000000000000000000000081526004018080602001828103825260158152602001807f446562746f722063616e6e6f74206265206e756c6c000000000000000000000081525060200191505060405180910390fd5b81600960006101000a81548173ffffffffffffffffffffffffffffffffffffffff021916908373ffffffffffffffffffffffffffffffffffffffff16021790555080600860006101000a81548173ffffffffffffffffffffffffffffffffffffffff021916908373ffffffffffffffffffffffffffffffffffffffff1602179055505050565b6000600d60019054906101000a900460ff16905090565b600960149054906101000a900460ff1681565b6000600180811115611cd957fe5b600960169054906101000a900460ff166001811115611cf457fe5b14905090565b600960009054906101000a900473ffffffffffffffffffffffffffffffffffffffff1681565b6000606082905060008180519060200120905060405180807f496e697453636f7065000000000000000000000000000000000000000000000081525060090190506040518091039020811415611d7b57600192505050611e12565b60405180807f53636f706500000000000000000000000000000000000000000000000000000081525060050190506040518091039020811415611dc357600192505050611e12565b60405180807f5465726d696e61746553636f7065000000000000000000000000000000000000815250600e0190506040518091039020811415611e0b57600192505050611e12565b6000925050505b919050565b6000606082905060008180519060200120905060405180807f496e697453636f7065000000000000000000000000000000000000000000000081525060090190506040518091039020811415611e7257600092505050611f05565b60405180807f53636f706500000000000000000000000000000000000000000000000000000081525060050190506040518091039020811415611eba57600292505050611f05565b60405180807f5465726d696e61746553636f7065000000000000000000000000000000000000815250600e0190506040518091039020811415611f0257600192505050611f05565b50505b919050565b600f60009054906101000a900473ffffffffffffffffffffffffffffffffffffffff1673ffffffffffffffffffffffffffffffffffffffff1663efc7f07183836040518363ffffffff1660e01b815260040180806020018373ffffffffffffffffffffffffffffffffffffffff1673ffffffffffffffffffffffffffffffffffffffff168152602001828103825284818151815260200191508051906020019080838360005b83811015611fcb578082015181840152602081019050611fb0565b50505050905090810190601f168015611ff85780820380516001836020036101000a031916815260200191505b509350505050600060405180830381600087803b15801561201857600080fd5b505af115801561202c573d6000803e3d6000fd5b505050505050565b60004290506120416127ba565b600560076101000a81548160ff0219169083151502179055506120626128ad565b600560086101000a81548160ff021916908315150217905550600154600654018110600560016101000a81548160ff0219169083151502179055506001546006540181101580156120b95750600254600654018111155b600560026101000a81548160ff021916908315150217905550600254600654018111600560036101000a81548160ff0219169083151502179055506000600181111561210157fe5b600560009054906101000a900460ff16600181111561211c57fe5b141561219f57600354600654018110600560046101000a81548160ff0219169083151502179055506003546006540181101580156121605750600454600654018111155b6005806101000a81548160ff021916908315150217905550600454600654018111600560066101000a81548160ff021916908315150217905550612218565b600354600754018110600560046101000a81548160ff0219169083151502179055506003546007540181101580156121dd5750600454600754018111155b6005806101000a81548160ff021916908315150217905550600454600754018111600560066101000a81548160ff0219169083151502179055505b600060025414156122625760015460065401811015600560026101000a81548160ff0219169083151502179055506000600560036101000a81548160ff0219169083151502179055505b60006004541415612327576000600560066101000a81548160ff02191690831515021790555060018081111561229457fe5b600560009054906101000a900460ff1660018111156122af57fe5b14156122d8576007548110156005806101000a81548160ff021916908315150217905550612326565b600060018111156122e557fe5b600560009054906101000a900460ff16600181111561230057fe5b1415612325576006548110156005806101000a81548160ff0219169083151502179055505b5b5b50565b6004600060016101000a81548160ff0219169083600781111561234957fe5b0217905550565b6001600060016101000a81548160ff0219169083600781111561236f57fe5b0217905550565b6005600060016101000a81548160ff0219169083600781111561239557fe5b0217905550565b6007600060016101000a81548160ff021916908360078111156123bb57fe5b0217905550565b6006600060016101000a81548160ff021916908360078111156123e157fe5b0217905550565b600f60009054906101000a900473ffffffffffffffffffffffffffffffffffffffff1673ffffffffffffffffffffffffffffffffffffffff16637b0cacc38484846040518463ffffffff1660e01b8152600401808060200184815260200183151515158152602001828103825285818151815260200191508051906020019080838360005b8381101561248857808201518184015260208101905061246d565b50505050905090810190601f1680156124b55780820380516001836020036101000a031916815260200191505b50945050505050600060405180830381600087803b1580156124d657600080fd5b505af11580156124ea573d6000803e3d6000fd5b50505050505050565b6000600781111561250057fe5b600060019054906101000a900460ff16600781111561251b57fe5b14156125545760008060026101000a81548160ff0219169083600781111561253f57fe5b02179055504260068190555061255361232a565b5b565b61255e612034565b6004600781111561256b57fe5b600060019054906101000a900460ff16600781111561258657fe5b1415612657576004600060026101000a81548160ff021916908360078111156125ab57fe5b0217905550600060018111156125bd57fe5b600060039054906101000a900460ff1660018111156125d857fe5b1480156125f057506005809054906101000a900460ff165b80156126085750600560089054906101000a900460ff165b80612637575060018081111561261a57fe5b600060039054906101000a900460ff16600181111561263557fe5b145b15612649576126446123c2565b612652565b612651612964565b5b612763565b6005600781111561266457fe5b600060019054906101000a900460ff16600781111561267f57fe5b1415612762576005600060026101000a81548160ff021916908360078111156126a457fe5b0217905550600560049054906101000a900460ff16156126cb576126c661239c565b612761565b600060018111156126d857fe5b600060039054906101000a900460ff1660018111156126f357fe5b14801561270b57506005809054906101000a900460ff165b80156127235750600560089054906101000a900460ff165b80612752575060018081111561273557fe5b600060039054906101000a900460ff16600181111561275057fe5b145b156127605761275f6123c2565b5b5b5b5b565b6000600181111561277257fe5b600960169054906101000a900460ff16600181111561278d57fe5b14156127b8576001600960166101000a81548160ff021916908360018111156127b257fe5b02179055505b565b6000600f60009054906101000a900473ffffffffffffffffffffffffffffffffffffffff1673ffffffffffffffffffffffffffffffffffffffff1663c75cb84e60016040518263ffffffff1660e01b81526004018080602001831515151581526020018281038252600d8152602001807f737461727444656c6976657279000000000000000000000000000000000000008152506020019250505060206040518083038186803b15801561286d57600080fd5b505afa158015612881573d6000803e3d6000fd5b505050506040513d602081101561289757600080fd5b8101908080519060200190929190505050905090565b6000600f60009054906101000a900473ffffffffffffffffffffffffffffffffffffffff1673ffffffffffffffffffffffffffffffffffffffff1663f1636aa4600e546040518263ffffffff1660e01b81526004018082815260200191505060206040518083038186803b15801561292457600080fd5b505afa158015612938573d6000803e3d6000fd5b505050506040513d602081101561294e57600080fd5b8101908080519060200190929190505050905090565b6002600060016101000a81548160ff0219169083600781111561298357fe5b021790555056fe796f752063616e2063616c6c2074686973206f6e6c7920647572696e6720696e697469616c697a6174696f6e74686520636f6d6d69746d656e7420686173206e6f74206265656e207369676e656420796574a265627a7a72315820b27de497d8cc5d4d167c742eefab3686b2be31bb87e6061622a317a4023861cd64736f6c63430005100032608060405234801561001057600080fd5b5033600360006101000a81548173ffffffffffffffffffffffffffffffffffffffff021916908373ffffffffffffffffffffffffffffffffffffffff1602179055506116e2806100616000396000f3fe608060405234801561001057600080fd5b50600436106100625760003560e01c80637b0cacc31461006757806385d352e514610138578063c75cb84e14610215578063cb356d91146102f4578063efc7f071146103ef578063f1636aa4146104ca575b600080fd5b6101366004803603606081101561007d57600080fd5b810190808035906020019064010000000081111561009a57600080fd5b8201836020820111156100ac57600080fd5b803590602001918460018302840111640100000000831117156100ce57600080fd5b91908080601f016020809104026020016040519081016040528093929190818152602001838380828437600081840152601f19601f82011690508083019250505050505050919291929080359060200190929190803515159060200190929190505050610510565b005b6101fb6004803603604081101561014e57600080fd5b810190808035906020019064010000000081111561016b57600080fd5b82018360208201111561017d57600080fd5b8035906020019184600183028401116401000000008311171561019f57600080fd5b91908080601f016020809104026020016040519081016040528093929190818152602001838380828437600081840152601f19601f8201169050808301925050505050505091929192908035906020019092919050505061092e565b604051808215151515815260200191505060405180910390f35b6102da6004803603604081101561022b57600080fd5b810190808035906020019064010000000081111561024857600080fd5b82018360208201111561025a57600080fd5b8035906020019184600183028401116401000000008311171561027c57600080fd5b91908080601f016020809104026020016040519081016040528093929190818152602001838380828437600081840152601f19601f820116905080830192505050505050509192919290803515159060200190929190505050610a91565b604051808215151515815260200191505060405180910390f35b6103ad6004803603602081101561030a57600080fd5b810190808035906020019064010000000081111561032757600080fd5b82018360208201111561033957600080fd5b8035906020019184600183028401116401000000008311171561035b57600080fd5b91908080601f016020809104026020016040519081016040528093929190818152602001838380828437600081840152601f19601f820116905080830192505050505050509192919290505050610ca3565b604051808273ffffffffffffffffffffffffffffffffffffffff1673ffffffffffffffffffffffffffffffffffffffff16815260200191505060405180910390f35b6104c86004803603604081101561040557600080fd5b810190808035906020019064010000000081111561042257600080fd5b82018360208201111561043457600080fd5b8035906020019184600183028401116401000000008311171561045657600080fd5b91908080601f016020809104026020016040519081016040528093929190818152602001838380828437600081840152601f19601f820116905080830192505050505050509192919290803573ffffffffffffffffffffffffffffffffffffffff169060200190929190505050610dfc565b005b6104f6600480360360208110156104e057600080fd5b810190808035906020019092919050505061110c565b604051808215151515815260200191505060405180910390f35b600360009054906101000a900473ffffffffffffffffffffffffffffffffffffffff1673ffffffffffffffffffffffffffffffffffffffff163373ffffffffffffffffffffffffffffffffffffffff16146105d3576040517f08c379a000000000000000000000000000000000000000000000000000000000815260040180806020018281038252601a8152602001807f4f6e6c792064624f776e65722063616e2063616c6c207468697300000000000081525060200191505060405180910390fd5b816000846040518082805190602001908083835b6020831061060a57805182526020820191506020810190506020830392506105e7565b6001836020036101000a0380198251168184511680821785525050505050509050019150509081526020016040518091039020600301600080866040518082805190602001908083835b602083106106775780518252602082019150602081019050602083039250610654565b6001836020036101000a038019825116818451168082178552505050505050905001915050908152602001604051809103902060020154815260200190815260200160002081905550806000846040518082805190602001908083835b602083106106f757805182526020820191506020810190506020830392506106d4565b6001836020036101000a0380198251168184511680821785525050505050509050019150509081526020016040518091039020600401600080866040518082805190602001908083835b602083106107645780518252602082019150602081019050602083039250610741565b6001836020036101000a038019825116818451168082178552505050505050905001915050908152602001604051809103902060020154815260200190815260200160002060006101000a81548160ff021916908315150217905550426000846040518082805190602001908083835b602083106107f757805182526020820191506020810190506020830392506107d4565b6001836020036101000a0380198251168184511680821785525050505050509050019150509081526020016040518091039020600501600080866040518082805190602001908083835b602083106108645780518252602082019150602081019050602083039250610841565b6001836020036101000a0380198251168184511680821785525050505050509050019150509081526020016040518091039020600201548152602001908152602001600020819055506000836040518082805190602001908083835b602083106108e357805182526020820191506020810190506020830392506108c0565b6001836020036101000a038019825116818451168082178552505050505050905001915050908152602001604051809103902060020160008154809291906001019190505550505050565b6000600360009054906101000a900473ffffffffffffffffffffffffffffffffffffffff1673ffffffffffffffffffffffffffffffffffffffff163373ffffffffffffffffffffffffffffffffffffffff16146109f3576040517f08c379a000000000000000000000000000000000000000000000000000000000815260040180806020018281038252601a8152602001807f4f6e6c792064624f776e65722063616e2063616c6c207468697300000000000081525060200191505060405180910390fd5b600080846040518082805190602001908083835b60208310610a2a5780518252602082019150602081019050602083039250610a07565b6001836020036101000a03801982511681845116808217855250505050505090500191505090815260200160405180910390209050600081600401600085815260200190815260200160002060009054906101000a900460ff169050809250505092915050565b6000600360009054906101000a900473ffffffffffffffffffffffffffffffffffffffff1673ffffffffffffffffffffffffffffffffffffffff163373ffffffffffffffffffffffffffffffffffffffff1614610b56576040517f08c379a000000000000000000000000000000000000000000000000000000000815260040180806020018281038252601a8152602001807f4f6e6c792064624f776e65722063616e2063616c6c207468697300000000000081525060200191505060405180910390fd5b600080600090505b6000856040518082805190602001908083835b60208310610b945780518252602082019150602081019050602083039250610b71565b6001836020036101000a038019825116818451168082178552505050505050905001915050908152602001604051809103902060020154811015610c77576000856040518082805190602001908083835b60208310610c085780518252602082019150602081019050602083039250610be5565b6001836020036101000a0380198251168184511680821785525050505050509050019150509081526020016040518091039020600401600082815260200190815260200160002060009054906101000a900460ff16610c6a5781806001019250505b8080600101915050610b5e565b50828015610c855750600181115b15610c94576000915050610c9d565b60018110159150505b92915050565b6000600360009054906101000a900473ffffffffffffffffffffffffffffffffffffffff1673ffffffffffffffffffffffffffffffffffffffff163373ffffffffffffffffffffffffffffffffffffffff1614610d68576040517f08c379a000000000000000000000000000000000000000000000000000000000815260040180806020018281038252601a8152602001807f4f6e6c792064624f776e65722063616e2063616c6c207468697300000000000081525060200191505060405180910390fd5b6000826040518082805190602001908083835b60208310610d9e5780518252602082019150602081019050602083039250610d7b565b6001836020036101000a038019825116818451168082178552505050505050905001915050908152602001604051809103902060010160009054906101000a900473ffffffffffffffffffffffffffffffffffffffff169050919050565b600360009054906101000a900473ffffffffffffffffffffffffffffffffffffffff1673ffffffffffffffffffffffffffffffffffffffff163373ffffffffffffffffffffffffffffffffffffffff1614610ebf576040517f08c379a000000000000000000000000000000000000000000000000000000000815260040180806020018281038252601a8152602001807f4f6e6c792064624f776e65722063616e2063616c6c207468697300000000000081525060200191505060405180910390fd5b60405180606001604052808381526020018273ffffffffffffffffffffffffffffffffffffffff16815260200160008152506000836040518082805190602001908083835b60208310610f275780518252602082019150602081019050602083039250610f04565b6001836020036101000a03801982511681845116808217855250505050505090500191505090815260200160405180910390206000820151816000019080519060200190610f76929190611588565b5060208201518160010160006101000a81548173ffffffffffffffffffffffffffffffffffffffff021916908373ffffffffffffffffffffffffffffffffffffffff1602179055506040820151816002015590505060016000836040518082805190602001908083835b602083106110035780518252602082019150602081019050602083039250610fe0565b6001836020036101000a0380198251168184511680821785525050505050509050019150509081526020016040518091039020600401600080856040518082805190602001908083835b60208310611070578051825260208201915060208101905060208303925061104d565b6001836020036101000a038019825116818451168082178552505050505050905001915050908152602001604051809103902060020154815260200190815260200160002060006101000a81548160ff0219169083151502179055508160016000600254815260200190815260200160002090805190602001906110f5929190611608565b506002600081548092919060010191905055505050565b6000600360009054906101000a900473ffffffffffffffffffffffffffffffffffffffff1673ffffffffffffffffffffffffffffffffffffffff163373ffffffffffffffffffffffffffffffffffffffff16146111d1576040517f08c379a000000000000000000000000000000000000000000000000000000000815260040180806020018281038252601a8152602001807f4f6e6c792064624f776e65722063616e2063616c6c207468697300000000000081525060200191505060405180910390fd5b60606112116040518060400160405280600b81526020017f74656d7065726174757265000000000000000000000000000000000000000000815250611261565b905060008090505b8151811015611255578382828151811061122f57fe5b602002602001015111156112485760009250505061125c565b8080600101915050611219565b5060019150505b919050565b6060600360009054906101000a900473ffffffffffffffffffffffffffffffffffffffff1673ffffffffffffffffffffffffffffffffffffffff163373ffffffffffffffffffffffffffffffffffffffff1614611326576040517f08c379a000000000000000000000000000000000000000000000000000000000815260040180806020018281038252601a8152602001807f4f6e6c792064624f776e65722063616e2063616c6c207468697300000000000081525060200191505060405180910390fd5b60606000836040518082805190602001908083835b6020831061135e578051825260208201915060208101905060208303925061133b565b6001836020036101000a0380198251168184511680821785525050505050509050019150509081526020016040518091039020600201546040519080825280602002602001820160405280156113c35781602001602082028038833980820191505090505b509050600080600090505b6000856040518082805190602001908083835b6020831061140457805182526020820191506020810190506020830392506113e1565b6001836020036101000a03801982511681845116808217855250505050505090500191505090815260200160405180910390206002015481101561157d576000856040518082805190602001908083835b602083106114785780518252602082019150602081019050602083039250611455565b6001836020036101000a0380198251168184511680821785525050505050509050019150509081526020016040518091039020600401600082815260200190815260200160002060009054906101000a900460ff16611570576000856040518082805190602001908083835b6020831061150757805182526020820191506020810190506020830392506114e4565b6001836020036101000a038019825116818451168082178552505050505050905001915050908152602001604051809103902060030160008281526020019081526020016000205483838151811061155b57fe5b60200260200101818152505081806001019250505b80806001019150506113ce565b508192505050919050565b828054600181600116156101000203166002900490600052602060002090601f016020900481019282601f106115c957805160ff19168380011785556115f7565b828001600101855582156115f7579182015b828111156115f65782518255916020019190600101906115db565b5b5090506116049190611688565b5090565b828054600181600116156101000203166002900490600052602060002090601f016020900481019282601f1061164957805160ff1916838001178555611677565b82800160010185558215611677579182015b8281111561167657825182559160200191906001019061165b565b5b5090506116849190611688565b5090565b6116aa91905b808211156116a657600081600090555060010161168e565b5090565b9056fea265627a7a72315820d7bd08bee594a2b2080dddf979ba93b20942d725815fec798bb6be56846359d364736f6c63430005100032",
  "source": "pragma solidity ^0.5.0;\nimport \"./model/BlockchainCommitment.sol\";\nimport \"./db/DB.sol\";\ncontract TemperatureCommitment is BlockchainCommitment {\n    uint private temperatureLimit;\n    DB db;\n    constructor (uint _temperatureLimit) BlockchainCommitment(Strenghts.Hard, Types.Persistent, 0, 0, 0, 0, RefCs.Detached) public {\n        temperatureLimit = _temperatureLimit;\n        db = new DB();\n\n    }\n\n\n    function condC() internal  returns(bool) {\n        return db.isTemperatureValid(temperatureLimit);\n    }\n\n    function condA() internal  returns(bool) {\n        return db.exist(\"startDelivery\", true);\n    }\n\n    function onDocumentPosted(string memory _documentId, uint _documentData, bool _warning) internal  {\n        db.store(_documentId, _documentData, _warning);\n    }\n    function onInitDocument(string memory _documentId, address _documentOwner) internal {\n        db.initDocument(_documentId, _documentOwner);\n    }\n\n\n\n\n}",
  "sourcePath": "/home/brt/development/commitment-solidity/contracts/TemperatureCommitment.sol",
  "compiler": {
    "name": "solc",
    "version": "0.5.16+commit.9c3226ce.Emscripten.clang"
  },
  "schemaVersion": "3.1.0",
  "updatedAt": "2020-05-30T16:58:21.424Z",
  "networkType": "ethereum",
  "devdoc": {
    "methods": {}
  },
  "userdoc": {
    "methods": {}
  }
}