{
  "contractName": "TemperatureCommitment",
  "abi": [
    {
      "inputs": [
        {
          "internalType": "uint256",
          "name": "_temperatureLimit",
          "type": "uint256"
        }
      ],
      "payable": false,
      "stateMutability": "nonpayable",
      "type": "constructor"
    },
    {
      "constant": true,
      "inputs": [],
      "name": "creditor",
      "outputs": [
        {
          "internalType": "address",
          "name": "",
          "type": "address"
        }
      ],
      "payable": false,
      "stateMutability": "view",
      "type": "function"
    },
    {
      "constant": true,
      "inputs": [],
      "name": "debtor",
      "outputs": [
        {
          "internalType": "address",
          "name": "",
          "type": "address"
        }
      ],
      "payable": false,
      "stateMutability": "view",
      "type": "function"
    },
    {
      "constant": true,
      "inputs": [],
      "name": "getRefC",
      "outputs": [
        {
          "internalType": "enum Commitment.RefCs",
          "name": "",
          "type": "uint8"
        }
      ],
      "payable": false,
      "stateMutability": "view",
      "type": "function"
    },
    {
      "constant": true,
      "inputs": [],
      "name": "getState",
      "outputs": [
        {
          "internalType": "enum Commitment.States",
          "name": "",
          "type": "uint8"
        }
      ],
      "payable": false,
      "stateMutability": "view",
      "type": "function"
    },
    {
      "constant": true,
      "inputs": [],
      "name": "getStateToString",
      "outputs": [
        {
          "internalType": "string",
          "name": "",
          "type": "string"
        }
      ],
      "payable": false,
      "stateMutability": "view",
      "type": "function"
    },
    {
      "constant": true,
      "inputs": [],
      "name": "getWarning",
      "outputs": [
        {
          "internalType": "bool",
          "name": "",
          "type": "bool"
        }
      ],
      "payable": false,
      "stateMutability": "view",
      "type": "function"
    },
    {
      "constant": false,
      "inputs": [
        {
          "internalType": "string",
          "name": "_documentId",
          "type": "string"
        },
        {
          "internalType": "address",
          "name": "_documentOwner",
          "type": "address"
        },
        {
          "internalType": "string",
          "name": "_documentCategory",
          "type": "string"
        }
      ],
      "name": "initDocument",
      "outputs": [],
      "payable": false,
      "stateMutability": "nonpayable",
      "type": "function"
    },
    {
      "constant": true,
      "inputs": [],
      "name": "isStarted",
      "outputs": [
        {
          "internalType": "bool",
          "name": "",
          "type": "bool"
        }
      ],
      "payable": false,
      "stateMutability": "view",
      "type": "function"
    },
    {
      "constant": true,
      "inputs": [],
      "name": "isTerminated",
      "outputs": [
        {
          "internalType": "bool",
          "name": "",
          "type": "bool"
        }
      ],
      "payable": false,
      "stateMutability": "view",
      "type": "function"
    },
    {
      "constant": false,
      "inputs": [],
      "name": "onTick",
      "outputs": [],
      "payable": false,
      "stateMutability": "nonpayable",
      "type": "function"
    },
    {
      "constant": false,
      "inputs": [
        {
          "internalType": "string",
          "name": "_documentId",
          "type": "string"
        },
        {
          "internalType": "uint256",
          "name": "_documentData",
          "type": "uint256"
        }
      ],
      "name": "postDocument",
      "outputs": [],
      "payable": false,
      "stateMutability": "nonpayable",
      "type": "function"
    },
    {
      "constant": false,
      "inputs": [
        {
          "internalType": "address",
          "name": "_creditor",
          "type": "address"
        },
        {
          "internalType": "address",
          "name": "_debtor",
          "type": "address"
        }
      ],
      "name": "setActors",
      "outputs": [],
      "payable": false,
      "stateMutability": "nonpayable",
      "type": "function"
    },
    {
      "constant": false,
      "inputs": [],
      "name": "signCommitment",
      "outputs": [],
      "payable": false,
      "stateMutability": "nonpayable",
      "type": "function"
    }
  ],
  "bytecode": "0x60806040523480156200001157600080fd5b506040516200425b3803806200425b833981810160405260208110156200003757600080fd5b81019080805190602001909291905050506000600160008060008060018686868686868660008060016101000a81548160ff021916908360078111156200007a57fe5b0217905550866000806101000a81548160ff021916908360018111156200009d57fe5b021790555085600060036101000a81548160ff02191690836001811115620000c157fe5b02179055508460018190555083600281905550826003819055508160048190555080600560006101000a81548160ff021916908360018111156200010157fe5b0217905550505050505050506000600960166101000a81548160ff021916908360018111156200012d57fe5b021790555033600a60006101000a81548173ffffffffffffffffffffffffffffffffffffffff021916908373ffffffffffffffffffffffffffffffffffffffff1602179055505050505050505080600e819055506040516200018f90620001f4565b604051809103906000f080158015620001ac573d6000803e3d6000fd5b50600f60006101000a81548173ffffffffffffffffffffffffffffffffffffffff021916908373ffffffffffffffffffffffffffffffffffffffff1602179055505062000202565b6117438062002b1883390190565b61290680620002126000396000f3fe608060405234801561001057600080fd5b50600436106100cf5760003560e01c806394657ca01161008c5780639ec77f84116100665780639ec77f8414610466578063d1cc9976146104ca578063e2273983146104ec578063e36db7851461050e576100cf565b806394657ca01461034d5780639c2b5e03146103575780639cb64a2d1461041c576100cf565b80631865c57d146100d45780633eccea221461010057806348b653f21461010a578063544736e61461027c57806359d6fa6a1461029e5780638af9812a14610321575b600080fd5b6100dc610558565b604051808260078111156100ec57fe5b60ff16815260200191505060405180910390f35b61010861056e565b005b61027a6004803603606081101561012057600080fd5b810190808035906020019064010000000081111561013d57600080fd5b82018360208201111561014f57600080fd5b8035906020019184600183028401116401000000008311171561017157600080fd5b91908080601f016020809104026020016040519081016040528093929190818152602001838380828437600081840152601f19601f820116905080830192505050505050509192919290803573ffffffffffffffffffffffffffffffffffffffff169060200190929190803590602001906401000000008111156101f457600080fd5b82018360208201111561020657600080fd5b8035906020019184600183028401116401000000008311171561022857600080fd5b91908080601f016020809104026020016040519081016040528093929190818152602001838380828437600081840152601f19601f820116905080830192505050505050509192919290505050610825565b005b610284610c78565b604051808215151515815260200191505060405180910390f35b6102a6610c8f565b6040518080602001828103825283818151815260200191508051906020019080838360005b838110156102e65780820151818401526020810190506102cb565b50505050905090810190601f1680156103135780820380516001836020036101000a031916815260200191505b509250505060405180910390f35b610329610fb9565b6040518082600181111561033957fe5b60ff16815260200191505060405180910390f35b610355610fd0565b005b61041a6004803603604081101561036d57600080fd5b810190808035906020019064010000000081111561038a57600080fd5b82018360208201111561039c57600080fd5b803590602001918460018302840111640100000000831117156103be57600080fd5b91908080601f016020809104026020016040519081016040528093929190818152602001838380828437600081840152601f19601f82011690508083019250505050505050919291929080359060200190929190505050611400565b005b61042461187e565b604051808273ffffffffffffffffffffffffffffffffffffffff1673ffffffffffffffffffffffffffffffffffffffff16815260200191505060405180910390f35b6104c86004803603604081101561047c57600080fd5b81019080803573ffffffffffffffffffffffffffffffffffffffff169060200190929190803573ffffffffffffffffffffffffffffffffffffffff1690602001909291905050506118a4565b005b6104d2611ba9565b604051808215151515815260200191505060405180910390f35b6104f4611bc0565b604051808215151515815260200191505060405180910390f35b610516611bef565b604051808273ffffffffffffffffffffffffffffffffffffffff1673ffffffffffffffffffffffffffffffffffffffff16815260200191505060405180910390f35b60008060019054906101000a900460ff16905090565b33600073ffffffffffffffffffffffffffffffffffffffff168173ffffffffffffffffffffffffffffffffffffffff16141580156106515750600960009054906101000a900473ffffffffffffffffffffffffffffffffffffffff1673ffffffffffffffffffffffffffffffffffffffff168173ffffffffffffffffffffffffffffffffffffffff1614806106505750600860009054906101000a900473ffffffffffffffffffffffffffffffffffffffff1673ffffffffffffffffffffffffffffffffffffffff168173ffffffffffffffffffffffffffffffffffffffff16145b5b6106c3576040517f08c379a00000000000000000000000000000000000000000000000000000000081526004018080602001828103825260158152602001807f7061727469636970616e74206e6f742076616c6964000000000000000000000081525060200191505060405180910390fd5b600060078111156106d057fe5b6106d8610558565b60078111156106e357fe5b14610739576040517f08c379a000000000000000000000000000000000000000000000000000000000815260040180806020018281038252602c815260200180612880602c913960400191505060405180910390fd5b600960009054906101000a900473ffffffffffffffffffffffffffffffffffffffff1673ffffffffffffffffffffffffffffffffffffffff163373ffffffffffffffffffffffffffffffffffffffff1614156107af576001600960146101000a81548160ff021916908315150217905550610822565b600860009054906101000a900473ffffffffffffffffffffffffffffffffffffffff1673ffffffffffffffffffffffffffffffffffffffff163373ffffffffffffffffffffffffffffffffffffffff161415610821576001600960156101000a81548160ff0219169083151502179055505b5b50565b600a60009054906101000a900473ffffffffffffffffffffffffffffffffffffffff1673ffffffffffffffffffffffffffffffffffffffff163373ffffffffffffffffffffffffffffffffffffffff16146108e8576040517f08c379a00000000000000000000000000000000000000000000000000000000081526004018080602001828103825260148152602001807f796f752063616e6e6f742063616c6c207468697300000000000000000000000081525060200191505060405180910390fd5b600060078111156108f557fe5b6108fd610558565b600781111561090857fe5b1461095e576040517f08c379a000000000000000000000000000000000000000000000000000000000815260040180806020018281038252602c815260200180612880602c913960400191505060405180910390fd5b81600073ffffffffffffffffffffffffffffffffffffffff168173ffffffffffffffffffffffffffffffffffffffff1614158015610a415750600960009054906101000a900473ffffffffffffffffffffffffffffffffffffffff1673ffffffffffffffffffffffffffffffffffffffff168173ffffffffffffffffffffffffffffffffffffffff161480610a405750600860009054906101000a900473ffffffffffffffffffffffffffffffffffffffff1673ffffffffffffffffffffffffffffffffffffffff168173ffffffffffffffffffffffffffffffffffffffff16145b5b610ab3576040517f08c379a00000000000000000000000000000000000000000000000000000000081526004018080602001828103825260158152602001807f7061727469636970616e74206e6f742076616c6964000000000000000000000081525060200191505060405180910390fd5b610abc82611c15565b610b2e576040517f08c379a000000000000000000000000000000000000000000000000000000000815260040180806020018281038252601b8152602001807f446f63756d656e742063617465676f7279206e6f742076616c6964000000000081525060200191505060405180910390fd5b82600b856040518082805190602001908083835b60208310610b655780518252602082019150602081019050602083039250610b42565b6001836020036101000a038019825116818451168082178552505050505050905001915050908152602001604051809103902060006101000a81548173ffffffffffffffffffffffffffffffffffffffff021916908373ffffffffffffffffffffffffffffffffffffffff160217905550610bdf82611d0c565b600c856040518082805190602001908083835b60208310610c155780518252602082019150602081019050602083039250610bf2565b6001836020036101000a038019825116818451168082178552505050505050905001915050908152602001604051809103902060006101000a81548160ff02191690836002811115610c6357fe5b0217905550610c728484611dff565b50505050565b6000600d60009054906101000a900460ff16905090565b606060006007811115610c9e57fe5b600060019054906101000a900460ff166007811115610cb957fe5b1415610cfc576040518060400160405280600481526020017f6e756c6c000000000000000000000000000000000000000000000000000000008152509050610fb6565b60056007811115610d0957fe5b600060019054906101000a900460ff166007811115610d2457fe5b1415610d67576040518060400160405280600881526020017f64657461636865640000000000000000000000000000000000000000000000008152509050610fb6565b60046007811115610d7457fe5b600060019054906101000a900460ff166007811115610d8f57fe5b1415610dd2576040518060400160405280600b81526020017f636f6e646974696f6e616c0000000000000000000000000000000000000000008152509050610fb6565b600780811115610dde57fe5b600060019054906101000a900460ff166007811115610df957fe5b1415610e3c576040518060400160405280600881526020017f76696f6c617465640000000000000000000000000000000000000000000000008152509050610fb6565b60066007811115610e4957fe5b600060019054906101000a900460ff166007811115610e6457fe5b1415610ea7576040518060400160405280600981526020017f73617469736669656400000000000000000000000000000000000000000000008152509050610fb6565b60026007811115610eb457fe5b600060019054906101000a900460ff166007811115610ecf57fe5b1415610f12576040518060400160405280600a81526020017f7465726d696e61746564000000000000000000000000000000000000000000008152509050610fb6565b60016007811115610f1f57fe5b600060019054906101000a900460ff166007811115610f3a57fe5b1415610f7d576040518060400160405280600781526020017f65787069726564000000000000000000000000000000000000000000000000008152509050610fb6565b6040518060400160405280600781526020017f70656e64696e670000000000000000000000000000000000000000000000000081525090505b90565b6000600560009054906101000a900460ff16905090565b610fd8611f29565b60046007811115610fe557fe5b600060019054906101000a900460ff16600781111561100057fe5b14156111d9576004600060026101000a81548160ff0219169083600781111561102557fe5b0217905550600560019054906101000a900460ff168061106a5750600560029054906101000a900460ff1680156110695750600560079054906101000a900460ff16155b5b156110785761107761221f565b5b600560039054906101000a900460ff161561109657611095612245565b5b600560029054906101000a900460ff1680156110be5750600560079054906101000a900460ff165b156110d357426007819055506110d261226b565b5b6001808111156110df57fe5b600060039054906101000a900460ff1660018111156110fa57fe5b14801561111257506005809054906101000a900460ff165b801561112b5750600560089054906101000a900460ff16155b8061117357506000600181111561113e57fe5b600060039054906101000a900460ff16600181111561115957fe5b1480156111725750600560069054906101000a900460ff165b5b1561118557611180612291565b6111d4565b60018081111561119157fe5b600060039054906101000a900460ff1660018111156111ac57fe5b1480156111c55750600560069054906101000a900460ff165b156111d3576111d26122b7565b5b5b6113fe565b600560078111156111e657fe5b600060019054906101000a900460ff16600781111561120157fe5b14156113fd576005600781111561121457fe5b600060029054906101000a900460ff16600781111561122f57fe5b5050600560049054906101000a900460ff16806112e857506005809054906101000a900460ff1680156112e757506000600181111561126a57fe5b600060039054906101000a900460ff16600181111561128557fe5b14801561129f5750600560089054906101000a900460ff16155b806112e657506001808111156112b157fe5b600060039054906101000a900460ff1660018111156112cc57fe5b1480156112e55750600560089054906101000a900460ff165b5b5b5b156112fa576112f561226b565b6113fc565b60018081111561130657fe5b600060039054906101000a900460ff16600181111561132157fe5b14801561133a5750600560069054906101000a900460ff165b1561134c576113476122b7565b6113fb565b60018081111561135857fe5b600060039054906101000a900460ff16600181111561137357fe5b14801561138b57506005809054906101000a900460ff165b80156113a45750600560089054906101000a900460ff16155b806113ec5750600060018111156113b757fe5b600060039054906101000a900460ff1660018111156113d257fe5b1480156113eb5750600560069054906101000a900460ff165b5b156113fa576113f9612291565b5b5b5b5b5b565b600960149054906101000a900460ff1680156114285750600960159054906101000a900460ff165b61147d576040517f08c379a00000000000000000000000000000000000000000000000000000000081526004018080602001828103825260268152602001806128ac6026913960400191505060405180910390fd5b600b826040518082805190602001908083835b602083106114b35780518252602082019150602081019050602083039250611490565b6001836020036101000a038019825116818451168082178552505050505050905001915050908152602001604051809103902060009054906101000a900473ffffffffffffffffffffffffffffffffffffffff1673ffffffffffffffffffffffffffffffffffffffff163373ffffffffffffffffffffffffffffffffffffffff16146115a7576040517f08c379a00000000000000000000000000000000000000000000000000000000081526004018080602001828103825260188152602001807f446f63756d656e74206f776e6572206e6f742076616c6964000000000000000081525060200191505060405180910390fd5b600d60009054906101000a900460ff161580156116505750600060028111156115cc57fe5b600c836040518082805190602001908083835b6020831061160257805182526020820191506020810190506020830392506115df565b6001836020036101000a038019825116818451168082178552505050505050905001915050908152602001604051809103902060009054906101000a900460ff16600281111561164e57fe5b145b80156116695750600d60019054906101000a900460ff16155b156116a2576001600d60006101000a81548160ff021916908315150217905550611695828260006122dd565b61169d6123e8565b611872565b600d60009054906101000a900460ff16801561174a5750600160028111156116c657fe5b600c836040518082805190602001908083835b602083106116fc57805182526020820191506020810190506020830392506116d9565b6001836020036101000a038019825116818451168082178552505050505050905001915050908152602001604051809103902060009054906101000a900460ff16600281111561174857fe5b145b1561179e576000600d60006101000a81548160ff0219169083151502179055506001600d60016101000a81548160ff021916908315150217905550611791828260006122dd565b61179961244b565b611871565b600d60009054906101000a900460ff16801561184557506002808111156117c157fe5b600c836040518082805190602001908083835b602083106117f757805182526020820191506020810190506020830392506117d4565b6001836020036101000a038019825116818451168082178552505050505050905001915050908152602001604051809103902060009054906101000a900460ff16600281111561184357fe5b145b1561185b57611856828260006122dd565b611870565b611867828260016122dd565b61186f61265a565b5b5b5b61187a610fd0565b5050565b600860009054906101000a900473ffffffffffffffffffffffffffffffffffffffff1681565b600a60009054906101000a900473ffffffffffffffffffffffffffffffffffffffff1673ffffffffffffffffffffffffffffffffffffffff163373ffffffffffffffffffffffffffffffffffffffff1614611967576040517f08c379a00000000000000000000000000000000000000000000000000000000081526004018080602001828103825260148152602001807f796f752063616e6e6f742063616c6c207468697300000000000000000000000081525060200191505060405180910390fd5b6000600781111561197457fe5b61197c610558565b600781111561198757fe5b146119dd576040517f08c379a000000000000000000000000000000000000000000000000000000000815260040180806020018281038252602c815260200180612880602c913960400191505060405180910390fd5b600073ffffffffffffffffffffffffffffffffffffffff168273ffffffffffffffffffffffffffffffffffffffff161415611a80576040517f08c379a00000000000000000000000000000000000000000000000000000000081526004018080602001828103825260178152602001807f4372656469746f722063616e6e6f74206265206e756c6c00000000000000000081525060200191505060405180910390fd5b600073ffffffffffffffffffffffffffffffffffffffff168173ffffffffffffffffffffffffffffffffffffffff161415611b23576040517f08c379a00000000000000000000000000000000000000000000000000000000081526004018080602001828103825260158152602001807f446562746f722063616e6e6f74206265206e756c6c000000000000000000000081525060200191505060405180910390fd5b81600960006101000a81548173ffffffffffffffffffffffffffffffffffffffff021916908373ffffffffffffffffffffffffffffffffffffffff16021790555080600860006101000a81548173ffffffffffffffffffffffffffffffffffffffff021916908373ffffffffffffffffffffffffffffffffffffffff1602179055505050565b6000600d60019054906101000a900460ff16905090565b6000600180811115611bce57fe5b600960169054906101000a900460ff166001811115611be957fe5b14905090565b600960009054906101000a900473ffffffffffffffffffffffffffffffffffffffff1681565b6000606082905060008180519060200120905060405180807f496e697453636f7065000000000000000000000000000000000000000000000081525060090190506040518091039020811415611c7057600192505050611d07565b60405180807f53636f706500000000000000000000000000000000000000000000000000000081525060050190506040518091039020811415611cb857600192505050611d07565b60405180807f5465726d696e61746553636f7065000000000000000000000000000000000000815250600e0190506040518091039020811415611d0057600192505050611d07565b6000925050505b919050565b6000606082905060008180519060200120905060405180807f496e697453636f7065000000000000000000000000000000000000000000000081525060090190506040518091039020811415611d6757600092505050611dfa565b60405180807f53636f706500000000000000000000000000000000000000000000000000000081525060050190506040518091039020811415611daf57600292505050611dfa565b60405180807f5465726d696e61746553636f7065000000000000000000000000000000000000815250600e0190506040518091039020811415611df757600192505050611dfa565b50505b919050565b600f60009054906101000a900473ffffffffffffffffffffffffffffffffffffffff1673ffffffffffffffffffffffffffffffffffffffff1663efc7f07183836040518363ffffffff1660e01b815260040180806020018373ffffffffffffffffffffffffffffffffffffffff1673ffffffffffffffffffffffffffffffffffffffff168152602001828103825284818151815260200191508051906020019080838360005b83811015611ec0578082015181840152602081019050611ea5565b50505050905090810190601f168015611eed5780820380516001836020036101000a031916815260200191505b509350505050600060405180830381600087803b158015611f0d57600080fd5b505af1158015611f21573d6000803e3d6000fd5b505050505050565b6000429050611f366126af565b600560076101000a81548160ff021916908315150217905550611f576127a2565b600560086101000a81548160ff021916908315150217905550600154600654018110600560016101000a81548160ff021916908315150217905550600154600654018110158015611fae5750600254600654018111155b600560026101000a81548160ff021916908315150217905550600254600654018111600560036101000a81548160ff02191690831515021790555060006001811115611ff657fe5b600560009054906101000a900460ff16600181111561201157fe5b141561209457600354600654018110600560046101000a81548160ff0219169083151502179055506003546006540181101580156120555750600454600654018111155b6005806101000a81548160ff021916908315150217905550600454600654018111600560066101000a81548160ff02191690831515021790555061210d565b600354600754018110600560046101000a81548160ff0219169083151502179055506003546007540181101580156120d25750600454600754018111155b6005806101000a81548160ff021916908315150217905550600454600754018111600560066101000a81548160ff0219169083151502179055505b600060025414156121575760015460065401811015600560026101000a81548160ff0219169083151502179055506000600560036101000a81548160ff0219169083151502179055505b6000600454141561221c576000600560066101000a81548160ff02191690831515021790555060018081111561218957fe5b600560009054906101000a900460ff1660018111156121a457fe5b14156121cd576007548110156005806101000a81548160ff02191690831515021790555061221b565b600060018111156121da57fe5b600560009054906101000a900460ff1660018111156121f557fe5b141561221a576006548110156005806101000a81548160ff0219169083151502179055505b5b5b50565b6004600060016101000a81548160ff0219169083600781111561223e57fe5b0217905550565b6001600060016101000a81548160ff0219169083600781111561226457fe5b0217905550565b6005600060016101000a81548160ff0219169083600781111561228a57fe5b0217905550565b6007600060016101000a81548160ff021916908360078111156122b057fe5b0217905550565b6006600060016101000a81548160ff021916908360078111156122d657fe5b0217905550565b600f60009054906101000a900473ffffffffffffffffffffffffffffffffffffffff1673ffffffffffffffffffffffffffffffffffffffff16637b0cacc38484846040518463ffffffff1660e01b8152600401808060200184815260200183151515158152602001828103825285818151815260200191508051906020019080838360005b8381101561237d578082015181840152602081019050612362565b50505050905090810190601f1680156123aa5780820380516001836020036101000a031916815260200191505b50945050505050600060405180830381600087803b1580156123cb57600080fd5b505af11580156123df573d6000803e3d6000fd5b50505050505050565b600060078111156123f557fe5b600060019054906101000a900460ff16600781111561241057fe5b14156124495760008060026101000a81548160ff0219169083600781111561243457fe5b02179055504260068190555061244861221f565b5b565b612453611f29565b6004600781111561246057fe5b600060019054906101000a900460ff16600781111561247b57fe5b141561254c576004600060026101000a81548160ff021916908360078111156124a057fe5b0217905550600060018111156124b257fe5b600060039054906101000a900460ff1660018111156124cd57fe5b1480156124e557506005809054906101000a900460ff165b80156124fd5750600560089054906101000a900460ff165b8061252c575060018081111561250f57fe5b600060039054906101000a900460ff16600181111561252a57fe5b145b1561253e576125396122b7565b612547565b612546612859565b5b612658565b6005600781111561255957fe5b600060019054906101000a900460ff16600781111561257457fe5b1415612657576005600060026101000a81548160ff0219169083600781111561259957fe5b0217905550600560049054906101000a900460ff16156125c0576125bb612291565b612656565b600060018111156125cd57fe5b600060039054906101000a900460ff1660018111156125e857fe5b14801561260057506005809054906101000a900460ff165b80156126185750600560089054906101000a900460ff165b80612647575060018081111561262a57fe5b600060039054906101000a900460ff16600181111561264557fe5b145b15612655576126546122b7565b5b5b5b5b565b6000600181111561266757fe5b600960169054906101000a900460ff16600181111561268257fe5b14156126ad576001600960166101000a81548160ff021916908360018111156126a757fe5b02179055505b565b6000600f60009054906101000a900473ffffffffffffffffffffffffffffffffffffffff1673ffffffffffffffffffffffffffffffffffffffff1663c75cb84e60016040518263ffffffff1660e01b81526004018080602001831515151581526020018281038252600d8152602001807f737461727444656c6976657279000000000000000000000000000000000000008152506020019250505060206040518083038186803b15801561276257600080fd5b505afa158015612776573d6000803e3d6000fd5b505050506040513d602081101561278c57600080fd5b8101908080519060200190929190505050905090565b6000600f60009054906101000a900473ffffffffffffffffffffffffffffffffffffffff1673ffffffffffffffffffffffffffffffffffffffff1663f1636aa4600e546040518263ffffffff1660e01b81526004018082815260200191505060206040518083038186803b15801561281957600080fd5b505afa15801561282d573d6000803e3d6000fd5b505050506040513d602081101561284357600080fd5b8101908080519060200190929190505050905090565b6002600060016101000a81548160ff0219169083600781111561287857fe5b021790555056fe796f752063616e2063616c6c2074686973206f6e6c7920647572696e6720696e697469616c697a6174696f6e74686520636f6d6d69746d656e7420686173206e6f74206265656e207369676e656420796574a265627a7a72315820d0b2d928b16d7952b2405a5774455fa837c0d44c545be389487e05d273e048fb64736f6c63430005100032608060405234801561001057600080fd5b5033600360006101000a81548173ffffffffffffffffffffffffffffffffffffffff021916908373ffffffffffffffffffffffffffffffffffffffff1602179055506116e2806100616000396000f3fe608060405234801561001057600080fd5b50600436106100625760003560e01c80637b0cacc31461006757806385d352e514610138578063c75cb84e14610215578063cb356d91146102f4578063efc7f071146103ef578063f1636aa4146104ca575b600080fd5b6101366004803603606081101561007d57600080fd5b810190808035906020019064010000000081111561009a57600080fd5b8201836020820111156100ac57600080fd5b803590602001918460018302840111640100000000831117156100ce57600080fd5b91908080601f016020809104026020016040519081016040528093929190818152602001838380828437600081840152601f19601f82011690508083019250505050505050919291929080359060200190929190803515159060200190929190505050610510565b005b6101fb6004803603604081101561014e57600080fd5b810190808035906020019064010000000081111561016b57600080fd5b82018360208201111561017d57600080fd5b8035906020019184600183028401116401000000008311171561019f57600080fd5b91908080601f016020809104026020016040519081016040528093929190818152602001838380828437600081840152601f19601f8201169050808301925050505050505091929192908035906020019092919050505061092e565b604051808215151515815260200191505060405180910390f35b6102da6004803603604081101561022b57600080fd5b810190808035906020019064010000000081111561024857600080fd5b82018360208201111561025a57600080fd5b8035906020019184600183028401116401000000008311171561027c57600080fd5b91908080601f016020809104026020016040519081016040528093929190818152602001838380828437600081840152601f19601f820116905080830192505050505050509192919290803515159060200190929190505050610a91565b604051808215151515815260200191505060405180910390f35b6103ad6004803603602081101561030a57600080fd5b810190808035906020019064010000000081111561032757600080fd5b82018360208201111561033957600080fd5b8035906020019184600183028401116401000000008311171561035b57600080fd5b91908080601f016020809104026020016040519081016040528093929190818152602001838380828437600081840152601f19601f820116905080830192505050505050509192919290505050610ca3565b604051808273ffffffffffffffffffffffffffffffffffffffff1673ffffffffffffffffffffffffffffffffffffffff16815260200191505060405180910390f35b6104c86004803603604081101561040557600080fd5b810190808035906020019064010000000081111561042257600080fd5b82018360208201111561043457600080fd5b8035906020019184600183028401116401000000008311171561045657600080fd5b91908080601f016020809104026020016040519081016040528093929190818152602001838380828437600081840152601f19601f820116905080830192505050505050509192919290803573ffffffffffffffffffffffffffffffffffffffff169060200190929190505050610dfc565b005b6104f6600480360360208110156104e057600080fd5b810190808035906020019092919050505061110c565b604051808215151515815260200191505060405180910390f35b600360009054906101000a900473ffffffffffffffffffffffffffffffffffffffff1673ffffffffffffffffffffffffffffffffffffffff163373ffffffffffffffffffffffffffffffffffffffff16146105d3576040517f08c379a000000000000000000000000000000000000000000000000000000000815260040180806020018281038252601a8152602001807f4f6e6c792064624f776e65722063616e2063616c6c207468697300000000000081525060200191505060405180910390fd5b816000846040518082805190602001908083835b6020831061060a57805182526020820191506020810190506020830392506105e7565b6001836020036101000a0380198251168184511680821785525050505050509050019150509081526020016040518091039020600301600080866040518082805190602001908083835b602083106106775780518252602082019150602081019050602083039250610654565b6001836020036101000a038019825116818451168082178552505050505050905001915050908152602001604051809103902060020154815260200190815260200160002081905550806000846040518082805190602001908083835b602083106106f757805182526020820191506020810190506020830392506106d4565b6001836020036101000a0380198251168184511680821785525050505050509050019150509081526020016040518091039020600401600080866040518082805190602001908083835b602083106107645780518252602082019150602081019050602083039250610741565b6001836020036101000a038019825116818451168082178552505050505050905001915050908152602001604051809103902060020154815260200190815260200160002060006101000a81548160ff021916908315150217905550426000846040518082805190602001908083835b602083106107f757805182526020820191506020810190506020830392506107d4565b6001836020036101000a0380198251168184511680821785525050505050509050019150509081526020016040518091039020600501600080866040518082805190602001908083835b602083106108645780518252602082019150602081019050602083039250610841565b6001836020036101000a0380198251168184511680821785525050505050509050019150509081526020016040518091039020600201548152602001908152602001600020819055506000836040518082805190602001908083835b602083106108e357805182526020820191506020810190506020830392506108c0565b6001836020036101000a038019825116818451168082178552505050505050905001915050908152602001604051809103902060020160008154809291906001019190505550505050565b6000600360009054906101000a900473ffffffffffffffffffffffffffffffffffffffff1673ffffffffffffffffffffffffffffffffffffffff163373ffffffffffffffffffffffffffffffffffffffff16146109f3576040517f08c379a000000000000000000000000000000000000000000000000000000000815260040180806020018281038252601a8152602001807f4f6e6c792064624f776e65722063616e2063616c6c207468697300000000000081525060200191505060405180910390fd5b600080846040518082805190602001908083835b60208310610a2a5780518252602082019150602081019050602083039250610a07565b6001836020036101000a03801982511681845116808217855250505050505090500191505090815260200160405180910390209050600081600401600085815260200190815260200160002060009054906101000a900460ff169050809250505092915050565b6000600360009054906101000a900473ffffffffffffffffffffffffffffffffffffffff1673ffffffffffffffffffffffffffffffffffffffff163373ffffffffffffffffffffffffffffffffffffffff1614610b56576040517f08c379a000000000000000000000000000000000000000000000000000000000815260040180806020018281038252601a8152602001807f4f6e6c792064624f776e65722063616e2063616c6c207468697300000000000081525060200191505060405180910390fd5b600080600090505b6000856040518082805190602001908083835b60208310610b945780518252602082019150602081019050602083039250610b71565b6001836020036101000a038019825116818451168082178552505050505050905001915050908152602001604051809103902060020154811015610c77576000856040518082805190602001908083835b60208310610c085780518252602082019150602081019050602083039250610be5565b6001836020036101000a0380198251168184511680821785525050505050509050019150509081526020016040518091039020600401600082815260200190815260200160002060009054906101000a900460ff16610c6a5781806001019250505b8080600101915050610b5e565b50828015610c855750600181115b15610c94576000915050610c9d565b60018110159150505b92915050565b6000600360009054906101000a900473ffffffffffffffffffffffffffffffffffffffff1673ffffffffffffffffffffffffffffffffffffffff163373ffffffffffffffffffffffffffffffffffffffff1614610d68576040517f08c379a000000000000000000000000000000000000000000000000000000000815260040180806020018281038252601a8152602001807f4f6e6c792064624f776e65722063616e2063616c6c207468697300000000000081525060200191505060405180910390fd5b6000826040518082805190602001908083835b60208310610d9e5780518252602082019150602081019050602083039250610d7b565b6001836020036101000a038019825116818451168082178552505050505050905001915050908152602001604051809103902060010160009054906101000a900473ffffffffffffffffffffffffffffffffffffffff169050919050565b600360009054906101000a900473ffffffffffffffffffffffffffffffffffffffff1673ffffffffffffffffffffffffffffffffffffffff163373ffffffffffffffffffffffffffffffffffffffff1614610ebf576040517f08c379a000000000000000000000000000000000000000000000000000000000815260040180806020018281038252601a8152602001807f4f6e6c792064624f776e65722063616e2063616c6c207468697300000000000081525060200191505060405180910390fd5b60405180606001604052808381526020018273ffffffffffffffffffffffffffffffffffffffff16815260200160008152506000836040518082805190602001908083835b60208310610f275780518252602082019150602081019050602083039250610f04565b6001836020036101000a03801982511681845116808217855250505050505090500191505090815260200160405180910390206000820151816000019080519060200190610f76929190611588565b5060208201518160010160006101000a81548173ffffffffffffffffffffffffffffffffffffffff021916908373ffffffffffffffffffffffffffffffffffffffff1602179055506040820151816002015590505060016000836040518082805190602001908083835b602083106110035780518252602082019150602081019050602083039250610fe0565b6001836020036101000a0380198251168184511680821785525050505050509050019150509081526020016040518091039020600401600080856040518082805190602001908083835b60208310611070578051825260208201915060208101905060208303925061104d565b6001836020036101000a038019825116818451168082178552505050505050905001915050908152602001604051809103902060020154815260200190815260200160002060006101000a81548160ff0219169083151502179055508160016000600254815260200190815260200160002090805190602001906110f5929190611608565b506002600081548092919060010191905055505050565b6000600360009054906101000a900473ffffffffffffffffffffffffffffffffffffffff1673ffffffffffffffffffffffffffffffffffffffff163373ffffffffffffffffffffffffffffffffffffffff16146111d1576040517f08c379a000000000000000000000000000000000000000000000000000000000815260040180806020018281038252601a8152602001807f4f6e6c792064624f776e65722063616e2063616c6c207468697300000000000081525060200191505060405180910390fd5b60606112116040518060400160405280600b81526020017f74656d7065726174757265000000000000000000000000000000000000000000815250611261565b905060008090505b8151811015611255578382828151811061122f57fe5b602002602001015111156112485760009250505061125c565b8080600101915050611219565b5060019150505b919050565b6060600360009054906101000a900473ffffffffffffffffffffffffffffffffffffffff1673ffffffffffffffffffffffffffffffffffffffff163373ffffffffffffffffffffffffffffffffffffffff1614611326576040517f08c379a000000000000000000000000000000000000000000000000000000000815260040180806020018281038252601a8152602001807f4f6e6c792064624f776e65722063616e2063616c6c207468697300000000000081525060200191505060405180910390fd5b60606000836040518082805190602001908083835b6020831061135e578051825260208201915060208101905060208303925061133b565b6001836020036101000a0380198251168184511680821785525050505050509050019150509081526020016040518091039020600201546040519080825280602002602001820160405280156113c35781602001602082028038833980820191505090505b509050600080600090505b6000856040518082805190602001908083835b6020831061140457805182526020820191506020810190506020830392506113e1565b6001836020036101000a03801982511681845116808217855250505050505090500191505090815260200160405180910390206002015481101561157d576000856040518082805190602001908083835b602083106114785780518252602082019150602081019050602083039250611455565b6001836020036101000a0380198251168184511680821785525050505050509050019150509081526020016040518091039020600401600082815260200190815260200160002060009054906101000a900460ff16611570576000856040518082805190602001908083835b6020831061150757805182526020820191506020810190506020830392506114e4565b6001836020036101000a038019825116818451168082178552505050505050905001915050908152602001604051809103902060030160008281526020019081526020016000205483838151811061155b57fe5b60200260200101818152505081806001019250505b80806001019150506113ce565b508192505050919050565b828054600181600116156101000203166002900490600052602060002090601f016020900481019282601f106115c957805160ff19168380011785556115f7565b828001600101855582156115f7579182015b828111156115f65782518255916020019190600101906115db565b5b5090506116049190611688565b5090565b828054600181600116156101000203166002900490600052602060002090601f016020900481019282601f1061164957805160ff1916838001178555611677565b82800160010185558215611677579182015b8281111561167657825182559160200191906001019061165b565b5b5090506116849190611688565b5090565b6116aa91905b808211156116a657600081600090555060010161168e565b5090565b9056fea265627a7a72315820d7bd08bee594a2b2080dddf979ba93b20942d725815fec798bb6be56846359d364736f6c63430005100032",
  "source": "pragma solidity ^0.5.0;\nimport \"./model/BlockchainCommitment.sol\";\nimport \"./db/DB.sol\";\ncontract TemperatureCommitment is BlockchainCommitment {\n    uint private temperatureLimit;\n    DB db;\n    constructor (uint _temperatureLimit) BlockchainCommitment(Strenghts.Hard, Types.Persistent, 0, 0, 0, 0, RefCs.Detached) public {\n        temperatureLimit = _temperatureLimit;\n        db = new DB();\n\n    }\n\n\n    function condC() internal  returns(bool) {\n        return db.isTemperatureValid(temperatureLimit);\n    }\n\n    function condA() internal  returns(bool) {\n        return db.exist(\"startDelivery\", true);\n    }\n\n    function onDocumentPosted(string memory _documentId, uint _documentData, bool _warning) internal  {\n        db.store(_documentId, _documentData, _warning);\n    }\n    function onInitDocument(string memory _documentId, address _documentOwner) internal {\n        db.initDocument(_documentId, _documentOwner);\n    }\n\n\n\n\n}",
  "sourcePath": "/home/brt/development/commitment-solidity/contracts/TemperatureCommitment.sol",
  "compiler": {
    "name": "solc",
    "version": "0.5.16+commit.9c3226ce.Emscripten.clang"
  },
  "schemaVersion": "3.1.0",
  "updatedAt": "2020-05-22T20:07:35.735Z",
  "networkType": "ethereum",
  "devdoc": {
    "methods": {}
  },
  "userdoc": {
    "methods": {}
  }
}